{
  "_format": "hh-sol-artifact-1",
  "contractName": "CryptoStackRewardNFT",
  "sourceName": "contracts/CryptoStackRewardNFT.sol",
  "abi": [
    {
      "inputs": [
        {
          "internalType": "address",
          "name": "_initialOwner",
          "type": "address"
        }
      ],
      "stateMutability": "nonpayable",
      "type": "constructor"
    },
    {
      "inputs": [
        {
          "internalType": "address",
          "name": "sender",
          "type": "address"
        },
        {
          "internalType": "uint256",
          "name": "tokenId",
          "type": "uint256"
        },
        {
          "internalType": "address",
          "name": "owner",
          "type": "address"
        }
      ],
      "name": "ERC721IncorrectOwner",
      "type": "error"
    },
    {
      "inputs": [
        {
          "internalType": "address",
          "name": "operator",
          "type": "address"
        },
        {
          "internalType": "uint256",
          "name": "tokenId",
          "type": "uint256"
        }
      ],
      "name": "ERC721InsufficientApproval",
      "type": "error"
    },
    {
      "inputs": [
        {
          "internalType": "address",
          "name": "approver",
          "type": "address"
        }
      ],
      "name": "ERC721InvalidApprover",
      "type": "error"
    },
    {
      "inputs": [
        {
          "internalType": "address",
          "name": "operator",
          "type": "address"
        }
      ],
      "name": "ERC721InvalidOperator",
      "type": "error"
    },
    {
      "inputs": [
        {
          "internalType": "address",
          "name": "owner",
          "type": "address"
        }
      ],
      "name": "ERC721InvalidOwner",
      "type": "error"
    },
    {
      "inputs": [
        {
          "internalType": "address",
          "name": "receiver",
          "type": "address"
        }
      ],
      "name": "ERC721InvalidReceiver",
      "type": "error"
    },
    {
      "inputs": [
        {
          "internalType": "address",
          "name": "sender",
          "type": "address"
        }
      ],
      "name": "ERC721InvalidSender",
      "type": "error"
    },
    {
      "inputs": [
        {
          "internalType": "uint256",
          "name": "tokenId",
          "type": "uint256"
        }
      ],
      "name": "ERC721NonexistentToken",
      "type": "error"
    },
    {
      "inputs": [
        {
          "internalType": "address",
          "name": "owner",
          "type": "address"
        }
      ],
      "name": "OwnableInvalidOwner",
      "type": "error"
    },
    {
      "inputs": [
        {
          "internalType": "address",
          "name": "account",
          "type": "address"
        }
      ],
      "name": "OwnableUnauthorizedAccount",
      "type": "error"
    },
    {
      "anonymous": false,
      "inputs": [
        {
          "indexed": true,
          "internalType": "address",
          "name": "owner",
          "type": "address"
        },
        {
          "indexed": true,
          "internalType": "address",
          "name": "approved",
          "type": "address"
        },
        {
          "indexed": true,
          "internalType": "uint256",
          "name": "tokenId",
          "type": "uint256"
        }
      ],
      "name": "Approval",
      "type": "event"
    },
    {
      "anonymous": false,
      "inputs": [
        {
          "indexed": true,
          "internalType": "address",
          "name": "owner",
          "type": "address"
        },
        {
          "indexed": true,
          "internalType": "address",
          "name": "operator",
          "type": "address"
        },
        {
          "indexed": false,
          "internalType": "bool",
          "name": "approved",
          "type": "bool"
        }
      ],
      "name": "ApprovalForAll",
      "type": "event"
    },
    {
      "anonymous": false,
      "inputs": [
        {
          "indexed": true,
          "internalType": "address",
          "name": "previousOwner",
          "type": "address"
        },
        {
          "indexed": true,
          "internalType": "address",
          "name": "newOwner",
          "type": "address"
        }
      ],
      "name": "OwnershipTransferred",
      "type": "event"
    },
    {
      "anonymous": false,
      "inputs": [
        {
          "indexed": true,
          "internalType": "address",
          "name": "from",
          "type": "address"
        },
        {
          "indexed": true,
          "internalType": "address",
          "name": "to",
          "type": "address"
        },
        {
          "indexed": true,
          "internalType": "uint256",
          "name": "tokenId",
          "type": "uint256"
        }
      ],
      "name": "Transfer",
      "type": "event"
    },
    {
      "inputs": [],
      "name": "TIER_1_POINTS",
      "outputs": [
        {
          "internalType": "uint256",
          "name": "",
          "type": "uint256"
        }
      ],
      "stateMutability": "view",
      "type": "function"
    },
    {
      "inputs": [],
      "name": "TIER_2_POINTS",
      "outputs": [
        {
          "internalType": "uint256",
          "name": "",
          "type": "uint256"
        }
      ],
      "stateMutability": "view",
      "type": "function"
    },
    {
      "inputs": [],
      "name": "TIER_3_POINTS",
      "outputs": [
        {
          "internalType": "uint256",
          "name": "",
          "type": "uint256"
        }
      ],
      "stateMutability": "view",
      "type": "function"
    },
    {
      "inputs": [
        {
          "internalType": "address",
          "name": "to",
          "type": "address"
        },
        {
          "internalType": "uint256",
          "name": "tokenId",
          "type": "uint256"
        }
      ],
      "name": "approve",
      "outputs": [],
      "stateMutability": "nonpayable",
      "type": "function"
    },
    {
      "inputs": [
        {
          "internalType": "address",
          "name": "owner",
          "type": "address"
        }
      ],
      "name": "balanceOf",
      "outputs": [
        {
          "internalType": "uint256",
          "name": "",
          "type": "uint256"
        }
      ],
      "stateMutability": "view",
      "type": "function"
    },
    {
      "inputs": [
        {
          "internalType": "uint256",
          "name": "tokenId",
          "type": "uint256"
        }
      ],
      "name": "getApproved",
      "outputs": [
        {
          "internalType": "address",
          "name": "",
          "type": "address"
        }
      ],
      "stateMutability": "view",
      "type": "function"
    },
    {
      "inputs": [
        {
          "internalType": "address",
          "name": "owner",
          "type": "address"
        },
        {
          "internalType": "address",
          "name": "operator",
          "type": "address"
        }
      ],
      "name": "isApprovedForAll",
      "outputs": [
        {
          "internalType": "bool",
          "name": "",
          "type": "bool"
        }
      ],
      "stateMutability": "view",
      "type": "function"
    },
    {
      "inputs": [
        {
          "internalType": "address",
          "name": "_to",
          "type": "address"
        },
        {
          "internalType": "uint256",
          "name": "_userPoints",
          "type": "uint256"
        }
      ],
      "name": "mintNFT",
      "outputs": [],
      "stateMutability": "nonpayable",
      "type": "function"
    },
    {
      "inputs": [],
      "name": "name",
      "outputs": [
        {
          "internalType": "string",
          "name": "",
          "type": "string"
        }
      ],
      "stateMutability": "view",
      "type": "function"
    },
    {
      "inputs": [
        {
          "internalType": "uint256",
          "name": "",
          "type": "uint256"
        }
      ],
      "name": "nftMetadata",
      "outputs": [
        {
          "internalType": "string",
          "name": "name",
          "type": "string"
        },
        {
          "internalType": "string",
          "name": "imageURI",
          "type": "string"
        },
        {
          "internalType": "string",
          "name": "description",
          "type": "string"
        }
      ],
      "stateMutability": "view",
      "type": "function"
    },
    {
      "inputs": [
        {
          "internalType": "uint256",
          "name": "",
          "type": "uint256"
        }
      ],
      "name": "nfts",
      "outputs": [
        {
          "internalType": "uint256",
          "name": "tokenID",
          "type": "uint256"
        },
        {
          "internalType": "address",
          "name": "owner",
          "type": "address"
        }
      ],
      "stateMutability": "view",
      "type": "function"
    },
    {
      "inputs": [],
      "name": "owner",
      "outputs": [
        {
          "internalType": "address",
          "name": "",
          "type": "address"
        }
      ],
      "stateMutability": "view",
      "type": "function"
    },
    {
      "inputs": [
        {
          "internalType": "uint256",
          "name": "tokenId",
          "type": "uint256"
        }
      ],
      "name": "ownerOf",
      "outputs": [
        {
          "internalType": "address",
          "name": "",
          "type": "address"
        }
      ],
      "stateMutability": "view",
      "type": "function"
    },
    {
      "inputs": [],
      "name": "renounceOwnership",
      "outputs": [],
      "stateMutability": "nonpayable",
      "type": "function"
    },
    {
      "inputs": [],
      "name": "returnNFTCount",
      "outputs": [
        {
          "internalType": "uint256",
          "name": "",
          "type": "uint256"
        }
      ],
      "stateMutability": "view",
      "type": "function"
    },
    {
      "inputs": [
        {
          "internalType": "address",
          "name": "from",
          "type": "address"
        },
        {
          "internalType": "address",
          "name": "to",
          "type": "address"
        },
        {
          "internalType": "uint256",
          "name": "tokenId",
          "type": "uint256"
        }
      ],
      "name": "safeTransferFrom",
      "outputs": [],
      "stateMutability": "nonpayable",
      "type": "function"
    },
    {
      "inputs": [
        {
          "internalType": "address",
          "name": "from",
          "type": "address"
        },
        {
          "internalType": "address",
          "name": "to",
          "type": "address"
        },
        {
          "internalType": "uint256",
          "name": "tokenId",
          "type": "uint256"
        },
        {
          "internalType": "bytes",
          "name": "data",
          "type": "bytes"
        }
      ],
      "name": "safeTransferFrom",
      "outputs": [],
      "stateMutability": "nonpayable",
      "type": "function"
    },
    {
      "inputs": [
        {
          "internalType": "address",
          "name": "operator",
          "type": "address"
        },
        {
          "internalType": "bool",
          "name": "approved",
          "type": "bool"
        }
      ],
      "name": "setApprovalForAll",
      "outputs": [],
      "stateMutability": "nonpayable",
      "type": "function"
    },
    {
      "inputs": [
        {
          "internalType": "uint256",
          "name": "tier",
          "type": "uint256"
        },
        {
          "internalType": "string",
          "name": "name",
          "type": "string"
        },
        {
          "internalType": "string",
          "name": "imageURI",
          "type": "string"
        },
        {
          "internalType": "string",
          "name": "description",
          "type": "string"
        }
      ],
      "name": "setNFTMetadata",
      "outputs": [],
      "stateMutability": "nonpayable",
      "type": "function"
    },
    {
      "inputs": [
        {
          "internalType": "bytes4",
          "name": "interfaceId",
          "type": "bytes4"
        }
      ],
      "name": "supportsInterface",
      "outputs": [
        {
          "internalType": "bool",
          "name": "",
          "type": "bool"
        }
      ],
      "stateMutability": "view",
      "type": "function"
    },
    {
      "inputs": [],
      "name": "symbol",
      "outputs": [
        {
          "internalType": "string",
          "name": "",
          "type": "string"
        }
      ],
      "stateMutability": "view",
      "type": "function"
    },
    {
      "inputs": [
        {
          "internalType": "uint256",
          "name": "tokenId",
          "type": "uint256"
        }
      ],
      "name": "tokenURI",
      "outputs": [
        {
          "internalType": "string",
          "name": "",
          "type": "string"
        }
      ],
      "stateMutability": "view",
      "type": "function"
    },
    {
      "inputs": [
        {
          "internalType": "address",
          "name": "from",
          "type": "address"
        },
        {
          "internalType": "address",
          "name": "to",
          "type": "address"
        },
        {
          "internalType": "uint256",
          "name": "tokenId",
          "type": "uint256"
        }
      ],
      "name": "transferFrom",
      "outputs": [],
      "stateMutability": "nonpayable",
      "type": "function"
    },
    {
      "inputs": [
        {
          "internalType": "address",
          "name": "newOwner",
          "type": "address"
        }
      ],
      "name": "transferOwnership",
      "outputs": [],
      "stateMutability": "nonpayable",
      "type": "function"
    }
  ],
  "bytecode": "0x60806040523480156200001157600080fd5b506040516200321e3803806200321e833981810160405281019062000037919062000290565b806040518060400160405280601481526020017f43727970746f537461636b5265776172644e46540000000000000000000000008152506040518060400160405280600681526020017f4353524e465400000000000000000000000000000000000000000000000000008152508160009081620000b591906200053c565b508060019081620000c791906200053c565b505050600073ffffffffffffffffffffffffffffffffffffffff168173ffffffffffffffffffffffffffffffffffffffff16036200013f5760006040517f1e4fbdf700000000000000000000000000000000000000000000000000000000815260040162000136919062000634565b60405180910390fd5b62000150816200016060201b60201c565b5060016009819055505062000651565b6000600660009054906101000a900473ffffffffffffffffffffffffffffffffffffffff16905081600660006101000a81548173ffffffffffffffffffffffffffffffffffffffff021916908373ffffffffffffffffffffffffffffffffffffffff1602179055508173ffffffffffffffffffffffffffffffffffffffff168173ffffffffffffffffffffffffffffffffffffffff167f8be0079c531659141344cd1fd0a4f28419497f9722a3daafe3b4186f6b6457e060405160405180910390a35050565b600080fd5b600073ffffffffffffffffffffffffffffffffffffffff82169050919050565b600062000258826200022b565b9050919050565b6200026a816200024b565b81146200027657600080fd5b50565b6000815190506200028a816200025f565b92915050565b600060208284031215620002a957620002a862000226565b5b6000620002b98482850162000279565b91505092915050565b600081519050919050565b7f4e487b7100000000000000000000000000000000000000000000000000000000600052604160045260246000fd5b7f4e487b7100000000000000000000000000000000000000000000000000000000600052602260045260246000fd5b600060028204905060018216806200034457607f821691505b6020821081036200035a5762000359620002fc565b5b50919050565b60008190508160005260206000209050919050565b60006020601f8301049050919050565b600082821b905092915050565b600060088302620003c47fffffffffffffffffffffffffffffffffffffffffffffffffffffffffffffffff8262000385565b620003d0868362000385565b95508019841693508086168417925050509392505050565b6000819050919050565b6000819050919050565b60006200041d620004176200041184620003e8565b620003f2565b620003e8565b9050919050565b6000819050919050565b6200043983620003fc565b62000451620004488262000424565b84845462000392565b825550505050565b600090565b6200046862000459565b620004758184846200042e565b505050565b5b818110156200049d57620004916000826200045e565b6001810190506200047b565b5050565b601f821115620004ec57620004b68162000360565b620004c18462000375565b81016020851015620004d1578190505b620004e9620004e08562000375565b8301826200047a565b50505b505050565b600082821c905092915050565b60006200051160001984600802620004f1565b1980831691505092915050565b60006200052c8383620004fe565b9150826002028217905092915050565b6200054782620002c2565b67ffffffffffffffff811115620005635762000562620002cd565b5b6200056f82546200032b565b6200057c828285620004a1565b600060209050601f831160018114620005b457600084156200059f578287015190505b620005ab85826200051e565b8655506200061b565b601f198416620005c48662000360565b60005b82811015620005ee57848901518255600182019150602085019450602081019050620005c7565b868310156200060e57848901516200060a601f891682620004fe565b8355505b6001600288020188555050505b505050505050565b6200062e816200024b565b82525050565b60006020820190506200064b600083018462000623565b92915050565b612bbd80620006616000396000f3fe608060405234801561001057600080fd5b50600436106101585760003560e01c806370a08231116100c3578063ab4f5ba91161007c578063ab4f5ba9146103ca578063b88d4fde146103e8578063c87b56dd14610404578063ca8923fb14610434578063e985e9c514610450578063f2fde38b1461048057610158565b806370a082311461031a578063715018a61461034a5780638da5cb5b1461035457806395d89b411461037257806397bf37d914610390578063a22cb465146103ae57610158565b80633c168eab116101155780633c168eab146102445780633ed6c81a1461026057806342842e0e1461027e578063495410151461029a5780636352211e146102cc57806365392f92146102fc57610158565b806301ffc9a71461015d57806306fdde031461018d578063081812fc146101ab578063095ea7b3146101db57806323b872dd146101f7578063265aa62114610213575b600080fd5b61017760048036038101906101729190611e43565b61049c565b6040516101849190611e8b565b60405180910390f35b61019561057e565b6040516101a29190611f36565b60405180910390f35b6101c560048036038101906101c09190611f8e565b610610565b6040516101d29190611ffc565b60405180910390f35b6101f560048036038101906101f09190612043565b61062c565b005b610211600480360381019061020c9190612083565b610642565b005b61022d60048036038101906102289190611f8e565b610744565b60405161023b9291906120e5565b60405180910390f35b61025e60048036038101906102599190612043565b610798565b005b6102686108ec565b604051610275919061210e565b60405180910390f35b61029860048036038101906102939190612083565b6108f9565b005b6102b460048036038101906102af9190611f8e565b610919565b6040516102c393929190612129565b60405180910390f35b6102e660048036038101906102e19190611f8e565b610adb565b6040516102f39190611ffc565b60405180910390f35b610304610aed565b604051610311919061210e565b60405180910390f35b610334600480360381019061032f9190612175565b610af2565b604051610341919061210e565b60405180910390f35b610352610bac565b005b61035c610bc0565b6040516103699190611ffc565b60405180910390f35b61037a610bea565b6040516103879190611f36565b60405180910390f35b610398610c7c565b6040516103a5919061210e565b60405180910390f35b6103c860048036038101906103c391906121ce565b610c82565b005b6103d2610c98565b6040516103df919061210e565b60405180910390f35b61040260048036038101906103fd9190612343565b610c9d565b005b61041e60048036038101906104199190611f8e565b610cba565b60405161042b9190611f36565b60405180910390f35b61044e60048036038101906104499190612467565b610d23565b005b61046a60048036038101906104659190612522565b610df5565b6040516104779190611e8b565b60405180910390f35b61049a60048036038101906104959190612175565b610e89565b005b60007f80ac58cd000000000000000000000000000000000000000000000000000000007bffffffffffffffffffffffffffffffffffffffffffffffffffffffff1916827bffffffffffffffffffffffffffffffffffffffffffffffffffffffff1916148061056757507f5b5e139f000000000000000000000000000000000000000000000000000000007bffffffffffffffffffffffffffffffffffffffffffffffffffffffff1916827bffffffffffffffffffffffffffffffffffffffffffffffffffffffff1916145b80610577575061057682610f0f565b5b9050919050565b60606000805461058d90612591565b80601f01602080910402602001604051908101604052809291908181526020018280546105b990612591565b80156106065780601f106105db57610100808354040283529160200191610606565b820191906000526020600020905b8154815290600101906020018083116105e957829003601f168201915b5050505050905090565b600061061b82610f79565b5061062582611001565b9050919050565b61063e828261063961103e565b611046565b5050565b600073ffffffffffffffffffffffffffffffffffffffff168273ffffffffffffffffffffffffffffffffffffffff16036106b45760006040517f64a0ae920000000000000000000000000000000000000000000000000000000081526004016106ab9190611ffc565b60405180910390fd5b60006106c883836106c361103e565b611058565b90508373ffffffffffffffffffffffffffffffffffffffff168173ffffffffffffffffffffffffffffffffffffffff161461073e578382826040517f64283d7b000000000000000000000000000000000000000000000000000000008152600401610735939291906125c2565b60405180910390fd5b50505050565b6008818154811061075457600080fd5b90600052602060002090600202016000915090508060000154908060010160009054906101000a900473ffffffffffffffffffffffffffffffffffffffff16905082565b6107a0611272565b60648110156107e4576040517f08c379a00000000000000000000000000000000000000000000000000000000081526004016107db9061266b565b60405180910390fd5b6000600960008154809291906107f9906126ba565b919050559050600061012c83106108135760039050610833565b60c883106108245760029050610832565b6064831061083157600190505b5b5b61083d84836112f9565b600860405180604001604052808481526020018673ffffffffffffffffffffffffffffffffffffffff1681525090806001815401808255809150506001900390600052602060002090600202016000909190919091506000820151816000015560208201518160010160006101000a81548173ffffffffffffffffffffffffffffffffffffffff021916908373ffffffffffffffffffffffffffffffffffffffff160217905550505050505050565b6000600880549050905090565b61091483838360405180602001604052806000815250610c9d565b505050565b600760205280600052604060002060009150905080600001805461093c90612591565b80601f016020809104026020016040519081016040528092919081815260200182805461096890612591565b80156109b55780601f1061098a576101008083540402835291602001916109b5565b820191906000526020600020905b81548152906001019060200180831161099857829003601f168201915b5050505050908060010180546109ca90612591565b80601f01602080910402602001604051908101604052809291908181526020018280546109f690612591565b8015610a435780601f10610a1857610100808354040283529160200191610a43565b820191906000526020600020905b815481529060010190602001808311610a2657829003601f168201915b505050505090806002018054610a5890612591565b80601f0160208091040260200160405190810160405280929190818152602001828054610a8490612591565b8015610ad15780601f10610aa657610100808354040283529160200191610ad1565b820191906000526020600020905b815481529060010190602001808311610ab457829003601f168201915b5050505050905083565b6000610ae682610f79565b9050919050565b606481565b60008073ffffffffffffffffffffffffffffffffffffffff168273ffffffffffffffffffffffffffffffffffffffff1603610b655760006040517f89c62b64000000000000000000000000000000000000000000000000000000008152600401610b5c9190611ffc565b60405180910390fd5b600360008373ffffffffffffffffffffffffffffffffffffffff1673ffffffffffffffffffffffffffffffffffffffff168152602001908152602001600020549050919050565b610bb4611272565b610bbe6000611317565b565b6000600660009054906101000a900473ffffffffffffffffffffffffffffffffffffffff16905090565b606060018054610bf990612591565b80601f0160208091040260200160405190810160405280929190818152602001828054610c2590612591565b8015610c725780601f10610c4757610100808354040283529160200191610c72565b820191906000526020600020905b815481529060010190602001808311610c5557829003601f168201915b5050505050905090565b61012c81565b610c94610c8d61103e565b83836113dd565b5050565b60c881565b610ca8848484610642565b610cb48484848461154c565b50505050565b6060610cc582610f79565b506000610cd0611703565b90506000815111610cf05760405180602001604052806000815250610d1b565b80610cfa8461171a565b604051602001610d0b92919061273e565b6040516020818303038152906040525b915050919050565b610d2b611272565b60018410158015610d3d575060038411155b610d7c576040517f08c379a0000000000000000000000000000000000000000000000000000000008152600401610d73906127ae565b60405180910390fd5b604051806060016040528084815260200183815260200182815250600760008681526020019081526020016000206000820151816000019081610dbf919061297a565b506020820151816001019081610dd5919061297a565b506040820151816002019081610deb919061297a565b5090505050505050565b6000600560008473ffffffffffffffffffffffffffffffffffffffff1673ffffffffffffffffffffffffffffffffffffffff16815260200190815260200160002060008373ffffffffffffffffffffffffffffffffffffffff1673ffffffffffffffffffffffffffffffffffffffff16815260200190815260200160002060009054906101000a900460ff16905092915050565b610e91611272565b600073ffffffffffffffffffffffffffffffffffffffff168173ffffffffffffffffffffffffffffffffffffffff1603610f035760006040517f1e4fbdf7000000000000000000000000000000000000000000000000000000008152600401610efa9190611ffc565b60405180910390fd5b610f0c81611317565b50565b60007f01ffc9a7000000000000000000000000000000000000000000000000000000007bffffffffffffffffffffffffffffffffffffffffffffffffffffffff1916827bffffffffffffffffffffffffffffffffffffffffffffffffffffffff1916149050919050565b600080610f85836117e8565b9050600073ffffffffffffffffffffffffffffffffffffffff168173ffffffffffffffffffffffffffffffffffffffff1603610ff857826040517f7e273289000000000000000000000000000000000000000000000000000000008152600401610fef919061210e565b60405180910390fd5b80915050919050565b60006004600083815260200190815260200160002060009054906101000a900473ffffffffffffffffffffffffffffffffffffffff169050919050565b600033905090565b6110538383836001611825565b505050565b600080611064846117e8565b9050600073ffffffffffffffffffffffffffffffffffffffff168373ffffffffffffffffffffffffffffffffffffffff16146110a6576110a58184866119ea565b5b600073ffffffffffffffffffffffffffffffffffffffff168173ffffffffffffffffffffffffffffffffffffffff1614611137576110e8600085600080611825565b6001600360008373ffffffffffffffffffffffffffffffffffffffff1673ffffffffffffffffffffffffffffffffffffffff168152602001908152602001600020600082825403925050819055505b600073ffffffffffffffffffffffffffffffffffffffff168573ffffffffffffffffffffffffffffffffffffffff16146111ba576001600360008773ffffffffffffffffffffffffffffffffffffffff1673ffffffffffffffffffffffffffffffffffffffff168152602001908152602001600020600082825401925050819055505b846002600086815260200190815260200160002060006101000a81548173ffffffffffffffffffffffffffffffffffffffff021916908373ffffffffffffffffffffffffffffffffffffffff160217905550838573ffffffffffffffffffffffffffffffffffffffff168273ffffffffffffffffffffffffffffffffffffffff167fddf252ad1be2c89b69c2b068fc378daa952ba7f163c4a11628f55a4df523b3ef60405160405180910390a4809150509392505050565b61127a61103e565b73ffffffffffffffffffffffffffffffffffffffff16611298610bc0565b73ffffffffffffffffffffffffffffffffffffffff16146112f7576112bb61103e565b6040517f118cdaa70000000000000000000000000000000000000000000000000000000081526004016112ee9190611ffc565b60405180910390fd5b565b611313828260405180602001604052806000815250611aae565b5050565b6000600660009054906101000a900473ffffffffffffffffffffffffffffffffffffffff16905081600660006101000a81548173ffffffffffffffffffffffffffffffffffffffff021916908373ffffffffffffffffffffffffffffffffffffffff1602179055508173ffffffffffffffffffffffffffffffffffffffff168173ffffffffffffffffffffffffffffffffffffffff167f8be0079c531659141344cd1fd0a4f28419497f9722a3daafe3b4186f6b6457e060405160405180910390a35050565b600073ffffffffffffffffffffffffffffffffffffffff168273ffffffffffffffffffffffffffffffffffffffff160361144e57816040517f5b08ba180000000000000000000000000000000000000000000000000000000081526004016114459190611ffc565b60405180910390fd5b80600560008573ffffffffffffffffffffffffffffffffffffffff1673ffffffffffffffffffffffffffffffffffffffff16815260200190815260200160002060008473ffffffffffffffffffffffffffffffffffffffff1673ffffffffffffffffffffffffffffffffffffffff16815260200190815260200160002060006101000a81548160ff0219169083151502179055508173ffffffffffffffffffffffffffffffffffffffff168373ffffffffffffffffffffffffffffffffffffffff167f17307eab39ab6107e8899845ad3d59bd9653f200f220920489ca2b5937696c318360405161153f9190611e8b565b60405180910390a3505050565b60008373ffffffffffffffffffffffffffffffffffffffff163b11156116fd578273ffffffffffffffffffffffffffffffffffffffff1663150b7a0261159061103e565b8685856040518563ffffffff1660e01b81526004016115b29493929190612aa1565b6020604051808303816000875af19250505080156115ee57506040513d601f19601f820116820180604052508101906115eb9190612b02565b60015b611672573d806000811461161e576040519150601f19603f3d011682016040523d82523d6000602084013e611623565b606091505b50600081510361166a57836040517f64a0ae920000000000000000000000000000000000000000000000000000000081526004016116619190611ffc565b60405180910390fd5b805181602001fd5b63150b7a0260e01b7bffffffffffffffffffffffffffffffffffffffffffffffffffffffff1916817bffffffffffffffffffffffffffffffffffffffffffffffffffffffff1916146116fb57836040517f64a0ae920000000000000000000000000000000000000000000000000000000081526004016116f29190611ffc565b60405180910390fd5b505b50505050565b606060405180602001604052806000815250905090565b60606000600161172984611aca565b01905060008167ffffffffffffffff81111561174857611747612218565b5b6040519080825280601f01601f19166020018201604052801561177a5781602001600182028036833780820191505090505b509050600082602001820190505b6001156117dd578080600190039150507f3031323334353637383961626364656600000000000000000000000000000000600a86061a8153600a85816117d1576117d0612b2f565b5b04945060008503611788575b819350505050919050565b60006002600083815260200190815260200160002060009054906101000a900473ffffffffffffffffffffffffffffffffffffffff169050919050565b808061185e5750600073ffffffffffffffffffffffffffffffffffffffff168273ffffffffffffffffffffffffffffffffffffffff1614155b1561199257600061186e84610f79565b9050600073ffffffffffffffffffffffffffffffffffffffff168373ffffffffffffffffffffffffffffffffffffffff16141580156118d957508273ffffffffffffffffffffffffffffffffffffffff168173ffffffffffffffffffffffffffffffffffffffff1614155b80156118ec57506118ea8184610df5565b155b1561192e57826040517fa9fbf51f0000000000000000000000000000000000000000000000000000000081526004016119259190611ffc565b60405180910390fd5b811561199057838573ffffffffffffffffffffffffffffffffffffffff168273ffffffffffffffffffffffffffffffffffffffff167f8c5be1e5ebec7d5bd14f71427d1e84f3dd0314c0f7b2291e5b200ac8c7c3b92560405160405180910390a45b505b836004600085815260200190815260200160002060006101000a81548173ffffffffffffffffffffffffffffffffffffffff021916908373ffffffffffffffffffffffffffffffffffffffff16021790555050505050565b6119f5838383611c1d565b611aa957600073ffffffffffffffffffffffffffffffffffffffff168373ffffffffffffffffffffffffffffffffffffffff1603611a6a57806040517f7e273289000000000000000000000000000000000000000000000000000000008152600401611a61919061210e565b60405180910390fd5b81816040517f177e802f000000000000000000000000000000000000000000000000000000008152600401611aa0929190612b5e565b60405180910390fd5b505050565b611ab88383611cde565b611ac5600084848461154c565b505050565b600080600090507a184f03e93ff9f4daa797ed6e38ed64bf6a1f0100000000000000008310611b28577a184f03e93ff9f4daa797ed6e38ed64bf6a1f0100000000000000008381611b1e57611b1d612b2f565b5b0492506040810190505b6d04ee2d6d415b85acef81000000008310611b65576d04ee2d6d415b85acef81000000008381611b5b57611b5a612b2f565b5b0492506020810190505b662386f26fc100008310611b9457662386f26fc100008381611b8a57611b89612b2f565b5b0492506010810190505b6305f5e1008310611bbd576305f5e1008381611bb357611bb2612b2f565b5b0492506008810190505b6127108310611be2576127108381611bd857611bd7612b2f565b5b0492506004810190505b60648310611c055760648381611bfb57611bfa612b2f565b5b0492506002810190505b600a8310611c14576001810190505b80915050919050565b60008073ffffffffffffffffffffffffffffffffffffffff168373ffffffffffffffffffffffffffffffffffffffff1614158015611cd557508273ffffffffffffffffffffffffffffffffffffffff168473ffffffffffffffffffffffffffffffffffffffff161480611c965750611c958484610df5565b5b80611cd457508273ffffffffffffffffffffffffffffffffffffffff16611cbc83611001565b73ffffffffffffffffffffffffffffffffffffffff16145b5b90509392505050565b600073ffffffffffffffffffffffffffffffffffffffff168273ffffffffffffffffffffffffffffffffffffffff1603611d505760006040517f64a0ae92000000000000000000000000000000000000000000000000000000008152600401611d479190611ffc565b60405180910390fd5b6000611d5e83836000611058565b9050600073ffffffffffffffffffffffffffffffffffffffff168173ffffffffffffffffffffffffffffffffffffffff1614611dd25760006040517f73c6ac6e000000000000000000000000000000000000000000000000000000008152600401611dc99190611ffc565b60405180910390fd5b505050565b6000604051905090565b600080fd5b600080fd5b60007fffffffff0000000000000000000000000000000000000000000000000000000082169050919050565b611e2081611deb565b8114611e2b57600080fd5b50565b600081359050611e3d81611e17565b92915050565b600060208284031215611e5957611e58611de1565b5b6000611e6784828501611e2e565b91505092915050565b60008115159050919050565b611e8581611e70565b82525050565b6000602082019050611ea06000830184611e7c565b92915050565b600081519050919050565b600082825260208201905092915050565b60005b83811015611ee0578082015181840152602081019050611ec5565b60008484015250505050565b6000601f19601f8301169050919050565b6000611f0882611ea6565b611f128185611eb1565b9350611f22818560208601611ec2565b611f2b81611eec565b840191505092915050565b60006020820190508181036000830152611f508184611efd565b905092915050565b6000819050919050565b611f6b81611f58565b8114611f7657600080fd5b50565b600081359050611f8881611f62565b92915050565b600060208284031215611fa457611fa3611de1565b5b6000611fb284828501611f79565b91505092915050565b600073ffffffffffffffffffffffffffffffffffffffff82169050919050565b6000611fe682611fbb565b9050919050565b611ff681611fdb565b82525050565b60006020820190506120116000830184611fed565b92915050565b61202081611fdb565b811461202b57600080fd5b50565b60008135905061203d81612017565b92915050565b6000806040838503121561205a57612059611de1565b5b60006120688582860161202e565b925050602061207985828601611f79565b9150509250929050565b60008060006060848603121561209c5761209b611de1565b5b60006120aa8682870161202e565b93505060206120bb8682870161202e565b92505060406120cc86828701611f79565b9150509250925092565b6120df81611f58565b82525050565b60006040820190506120fa60008301856120d6565b6121076020830184611fed565b9392505050565b600060208201905061212360008301846120d6565b92915050565b600060608201905081810360008301526121438186611efd565b905081810360208301526121578185611efd565b9050818103604083015261216b8184611efd565b9050949350505050565b60006020828403121561218b5761218a611de1565b5b60006121998482850161202e565b91505092915050565b6121ab81611e70565b81146121b657600080fd5b50565b6000813590506121c8816121a2565b92915050565b600080604083850312156121e5576121e4611de1565b5b60006121f38582860161202e565b9250506020612204858286016121b9565b9150509250929050565b600080fd5b600080fd5b7f4e487b7100000000000000000000000000000000000000000000000000000000600052604160045260246000fd5b61225082611eec565b810181811067ffffffffffffffff8211171561226f5761226e612218565b5b80604052505050565b6000612282611dd7565b905061228e8282612247565b919050565b600067ffffffffffffffff8211156122ae576122ad612218565b5b6122b782611eec565b9050602081019050919050565b82818337600083830152505050565b60006122e66122e184612293565b612278565b90508281526020810184848401111561230257612301612213565b5b61230d8482856122c4565b509392505050565b600082601f83011261232a5761232961220e565b5b813561233a8482602086016122d3565b91505092915050565b6000806000806080858703121561235d5761235c611de1565b5b600061236b8782880161202e565b945050602061237c8782880161202e565b935050604061238d87828801611f79565b925050606085013567ffffffffffffffff8111156123ae576123ad611de6565b5b6123ba87828801612315565b91505092959194509250565b600067ffffffffffffffff8211156123e1576123e0612218565b5b6123ea82611eec565b9050602081019050919050565b600061240a612405846123c6565b612278565b90508281526020810184848401111561242657612425612213565b5b6124318482856122c4565b509392505050565b600082601f83011261244e5761244d61220e565b5b813561245e8482602086016123f7565b91505092915050565b6000806000806080858703121561248157612480611de1565b5b600061248f87828801611f79565b945050602085013567ffffffffffffffff8111156124b0576124af611de6565b5b6124bc87828801612439565b935050604085013567ffffffffffffffff8111156124dd576124dc611de6565b5b6124e987828801612439565b925050606085013567ffffffffffffffff81111561250a57612509611de6565b5b61251687828801612439565b91505092959194509250565b6000806040838503121561253957612538611de1565b5b60006125478582860161202e565b92505060206125588582860161202e565b9150509250929050565b7f4e487b7100000000000000000000000000000000000000000000000000000000600052602260045260246000fd5b600060028204905060018216806125a957607f821691505b6020821081036125bc576125bb612562565b5b50919050565b60006060820190506125d76000830186611fed565b6125e460208301856120d6565b6125f16040830184611fed565b949350505050565b7f5573657220706f696e7473206e6f742073756666696369656e7420666f72206160008201527f6e79207469657200000000000000000000000000000000000000000000000000602082015250565b6000612655602783611eb1565b9150612660826125f9565b604082019050919050565b6000602082019050818103600083015261268481612648565b9050919050565b7f4e487b7100000000000000000000000000000000000000000000000000000000600052601160045260246000fd5b60006126c582611f58565b91507fffffffffffffffffffffffffffffffffffffffffffffffffffffffffffffffff82036126f7576126f661268b565b5b600182019050919050565b600081905092915050565b600061271882611ea6565b6127228185612702565b9350612732818560208601611ec2565b80840191505092915050565b600061274a828561270d565b9150612756828461270d565b91508190509392505050565b7f496e76616c696420746965720000000000000000000000000000000000000000600082015250565b6000612798600c83611eb1565b91506127a382612762565b602082019050919050565b600060208201905081810360008301526127c78161278b565b9050919050565b60008190508160005260206000209050919050565b60006020601f8301049050919050565b600082821b905092915050565b6000600883026128307fffffffffffffffffffffffffffffffffffffffffffffffffffffffffffffffff826127f3565b61283a86836127f3565b95508019841693508086168417925050509392505050565b6000819050919050565b600061287761287261286d84611f58565b612852565b611f58565b9050919050565b6000819050919050565b6128918361285c565b6128a561289d8261287e565b848454612800565b825550505050565b600090565b6128ba6128ad565b6128c5818484612888565b505050565b5b818110156128e9576128de6000826128b2565b6001810190506128cb565b5050565b601f82111561292e576128ff816127ce565b612908846127e3565b81016020851015612917578190505b61292b612923856127e3565b8301826128ca565b50505b505050565b600082821c905092915050565b600061295160001984600802612933565b1980831691505092915050565b600061296a8383612940565b9150826002028217905092915050565b61298382611ea6565b67ffffffffffffffff81111561299c5761299b612218565b5b6129a68254612591565b6129b18282856128ed565b600060209050601f8311600181146129e457600084156129d2578287015190505b6129dc858261295e565b865550612a44565b601f1984166129f2866127ce565b60005b82811015612a1a578489015182556001820191506020850194506020810190506129f5565b86831015612a375784890151612a33601f891682612940565b8355505b6001600288020188555050505b505050505050565b600081519050919050565b600082825260208201905092915050565b6000612a7382612a4c565b612a7d8185612a57565b9350612a8d818560208601611ec2565b612a9681611eec565b840191505092915050565b6000608082019050612ab66000830187611fed565b612ac36020830186611fed565b612ad060408301856120d6565b8181036060830152612ae28184612a68565b905095945050505050565b600081519050612afc81611e17565b92915050565b600060208284031215612b1857612b17611de1565b5b6000612b2684828501612aed565b91505092915050565b7f4e487b7100000000000000000000000000000000000000000000000000000000600052601260045260246000fd5b6000604082019050612b736000830185611fed565b612b8060208301846120d6565b939250505056fea26469706673582212201028eef519ab7e286832062a10cbe117f7190fea6823161aa9746bc9013884c164736f6c63430008140033",
  "linkReferences": {},
  "deployedLinkReferences": {}
}