{
  "_format": "hh-sol-artifact-1",
  "contractName": "CryptoStackMain",
  "sourceName": "contracts/CryptoStackMain.sol",
  "abi": [
    {
      "inputs": [
        {
          "internalType": "address",
          "name": "_nftContractAddress",
          "type": "address"
        }
      ],
      "stateMutability": "nonpayable",
      "type": "constructor"
    },
    {
      "anonymous": false,
      "inputs": [
        {
          "indexed": true,
          "internalType": "address",
          "name": "owner",
          "type": "address"
        }
      ],
      "name": "NFTMinted",
      "type": "event"
    },
    {
      "anonymous": false,
      "inputs": [
        {
          "indexed": false,
          "internalType": "uint256",
          "name": "",
          "type": "uint256"
        },
        {
          "indexed": false,
          "internalType": "uint256",
          "name": "",
          "type": "uint256"
        },
        {
          "indexed": false,
          "internalType": "address",
          "name": "",
          "type": "address"
        }
      ],
      "name": "answeredQuestion",
      "type": "event"
    },
    {
      "anonymous": false,
      "inputs": [
        {
          "indexed": false,
          "internalType": "uint256",
          "name": "",
          "type": "uint256"
        },
        {
          "indexed": false,
          "internalType": "address",
          "name": "",
          "type": "address"
        }
      ],
      "name": "createdNewQuestion",
      "type": "event"
    },
    {
      "anonymous": false,
      "inputs": [
        {
          "indexed": false,
          "internalType": "uint256",
          "name": "",
          "type": "uint256"
        },
        {
          "indexed": false,
          "internalType": "address",
          "name": "",
          "type": "address"
        }
      ],
      "name": "downvotedAnswer",
      "type": "event"
    },
    {
      "anonymous": false,
      "inputs": [
        {
          "indexed": false,
          "internalType": "uint256",
          "name": "",
          "type": "uint256"
        },
        {
          "indexed": false,
          "internalType": "address",
          "name": "",
          "type": "address"
        }
      ],
      "name": "downvotedQuestion",
      "type": "event"
    },
    {
      "anonymous": false,
      "inputs": [
        {
          "indexed": false,
          "internalType": "address",
          "name": "",
          "type": "address"
        }
      ],
      "name": "registeredNewUser",
      "type": "event"
    },
    {
      "anonymous": false,
      "inputs": [
        {
          "indexed": false,
          "internalType": "uint256",
          "name": "",
          "type": "uint256"
        },
        {
          "indexed": false,
          "internalType": "address",
          "name": "",
          "type": "address"
        }
      ],
      "name": "upvotedAnswer",
      "type": "event"
    },
    {
      "anonymous": false,
      "inputs": [
        {
          "indexed": false,
          "internalType": "uint256",
          "name": "",
          "type": "uint256"
        },
        {
          "indexed": false,
          "internalType": "address",
          "name": "",
          "type": "address"
        }
      ],
      "name": "upvotedQuestion",
      "type": "event"
    },
    {
      "inputs": [],
      "name": "answerCount",
      "outputs": [
        {
          "internalType": "uint256",
          "name": "",
          "type": "uint256"
        }
      ],
      "stateMutability": "view",
      "type": "function"
    },
    {
      "inputs": [
        {
          "internalType": "uint256",
          "name": "_questionId",
          "type": "uint256"
        },
        {
          "internalType": "string",
          "name": "_answerString",
          "type": "string"
        }
      ],
      "name": "answerQuestion",
      "outputs": [],
      "stateMutability": "nonpayable",
      "type": "function"
    },
    {
      "inputs": [
        {
          "internalType": "uint256",
          "name": "",
          "type": "uint256"
        }
      ],
      "name": "answers",
      "outputs": [
        {
          "internalType": "uint256",
          "name": "id",
          "type": "uint256"
        },
        {
          "internalType": "uint256",
          "name": "questionId",
          "type": "uint256"
        },
        {
          "internalType": "address",
          "name": "replierAddress",
          "type": "address"
        },
        {
          "internalType": "string",
          "name": "answerString",
          "type": "string"
        },
        {
          "internalType": "uint256",
          "name": "upvotes",
          "type": "uint256"
        },
        {
          "internalType": "uint256",
          "name": "downvotes",
          "type": "uint256"
        },
        {
          "internalType": "uint256",
          "name": "timestamp",
          "type": "uint256"
        }
      ],
      "stateMutability": "view",
      "type": "function"
    },
    {
      "inputs": [
        {
          "internalType": "string",
          "name": "_questionString",
          "type": "string"
        }
      ],
      "name": "createNewQuestion",
      "outputs": [],
      "stateMutability": "nonpayable",
      "type": "function"
    },
    {
      "inputs": [
        {
          "internalType": "uint256",
          "name": "_answerId",
          "type": "uint256"
        }
      ],
      "name": "downvoteAnswer",
      "outputs": [],
      "stateMutability": "nonpayable",
      "type": "function"
    },
    {
      "inputs": [
        {
          "internalType": "uint256",
          "name": "_questionId",
          "type": "uint256"
        }
      ],
      "name": "downvoteQuestion",
      "outputs": [],
      "stateMutability": "nonpayable",
      "type": "function"
    },
    {
      "inputs": [
        {
          "internalType": "address",
          "name": "_user",
          "type": "address"
        }
      ],
      "name": "getUserPoints",
      "outputs": [
        {
          "internalType": "uint256",
          "name": "",
          "type": "uint256"
        }
      ],
      "stateMutability": "view",
      "type": "function"
    },
    {
      "inputs": [
        {
          "internalType": "address",
          "name": "_user",
          "type": "address"
        }
      ],
      "name": "isFrequentContributor",
      "outputs": [
        {
          "internalType": "bool",
          "name": "",
          "type": "bool"
        }
      ],
      "stateMutability": "view",
      "type": "function"
    },
    {
      "inputs": [
        {
          "internalType": "address",
          "name": "_user",
          "type": "address"
        }
      ],
      "name": "isRegisteredUser",
      "outputs": [
        {
          "internalType": "bool",
          "name": "",
          "type": "bool"
        }
      ],
      "stateMutability": "view",
      "type": "function"
    },
    {
      "inputs": [],
      "name": "mintNFT",
      "outputs": [],
      "stateMutability": "nonpayable",
      "type": "function"
    },
    {
      "inputs": [],
      "name": "nftContract",
      "outputs": [
        {
          "internalType": "contract CryptoStackRewardNFT",
          "name": "",
          "type": "address"
        }
      ],
      "stateMutability": "view",
      "type": "function"
    },
    {
      "inputs": [],
      "name": "questionCount",
      "outputs": [
        {
          "internalType": "uint256",
          "name": "",
          "type": "uint256"
        }
      ],
      "stateMutability": "view",
      "type": "function"
    },
    {
      "inputs": [
        {
          "internalType": "uint256",
          "name": "",
          "type": "uint256"
        }
      ],
      "name": "questions",
      "outputs": [
        {
          "internalType": "uint256",
          "name": "id",
          "type": "uint256"
        },
        {
          "internalType": "address",
          "name": "questionaireAddress",
          "type": "address"
        },
        {
          "internalType": "bool",
          "name": "isAnswered",
          "type": "bool"
        },
        {
          "internalType": "string",
          "name": "questionString",
          "type": "string"
        },
        {
          "internalType": "uint256",
          "name": "upvotes",
          "type": "uint256"
        },
        {
          "internalType": "uint256",
          "name": "downvotes",
          "type": "uint256"
        },
        {
          "internalType": "uint256",
          "name": "timestamp",
          "type": "uint256"
        }
      ],
      "stateMutability": "view",
      "type": "function"
    },
    {
      "inputs": [
        {
          "internalType": "string",
          "name": "_userName",
          "type": "string"
        }
      ],
      "name": "registerNewUser",
      "outputs": [],
      "stateMutability": "nonpayable",
      "type": "function"
    },
    {
      "inputs": [
        {
          "internalType": "uint256",
          "name": "_answerId",
          "type": "uint256"
        }
      ],
      "name": "upvoteAnswer",
      "outputs": [],
      "stateMutability": "nonpayable",
      "type": "function"
    },
    {
      "inputs": [
        {
          "internalType": "uint256",
          "name": "_questionId",
          "type": "uint256"
        }
      ],
      "name": "upvoteQuestion",
      "outputs": [],
      "stateMutability": "nonpayable",
      "type": "function"
    },
    {
      "inputs": [],
      "name": "userCount",
      "outputs": [
        {
          "internalType": "uint256",
          "name": "",
          "type": "uint256"
        }
      ],
      "stateMutability": "view",
      "type": "function"
    },
    {
      "inputs": [
        {
          "internalType": "uint256",
          "name": "",
          "type": "uint256"
        }
      ],
      "name": "users",
      "outputs": [
        {
          "internalType": "uint256",
          "name": "userPoints",
          "type": "uint256"
        },
        {
          "internalType": "address",
          "name": "userAddress",
          "type": "address"
        },
        {
          "internalType": "string",
          "name": "userName",
          "type": "string"
        }
      ],
      "stateMutability": "view",
      "type": "function"
    }
  ],
  "bytecode": "0x60806040523480156200001157600080fd5b506040516200258b3803806200258b8339818101604052810190620000379190620000e8565b806000806101000a81548173ffffffffffffffffffffffffffffffffffffffff021916908373ffffffffffffffffffffffffffffffffffffffff160217905550506200011a565b600080fd5b600073ffffffffffffffffffffffffffffffffffffffff82169050919050565b6000620000b08262000083565b9050919050565b620000c281620000a3565b8114620000ce57600080fd5b50565b600081519050620000e281620000b7565b92915050565b6000602082840312156200010157620001006200007e565b5b60006200011184828501620000d1565b91505092915050565b612461806200012a6000396000f3fe608060405234801561001057600080fd5b50600436106101165760003560e01c8063365b98b2116100a25780637df88f24116100715780637df88f24146102ed578063995ac4fd14610309578063aeefe31f14610325578063d56d229d14610355578063e11041c31461037357610116565b8063365b98b214610253578063447e52a0146102855780635a89bf14146102a15780635fbab8bf146102d157610116565b806314f710fe116100e957806314f710fe1461019157806317599cc51461019b5780631f5bdf5d146101d1578063229d90001461020157806331b1b9781461021d57610116565b806307973ccf1461011b5780630aab0b54146101395780630bed0502146101555780631468aa2c14610173575b600080fd5b61012361038f565b6040516101309190611823565b60405180910390f35b610153600480360381019061014e9190611998565b610395565b005b61015d610555565b60405161016a9190611823565b60405180910390f35b61017b61055b565b6040516101889190611823565b60405180910390f35b610199610561565b005b6101b560048036038101906101b09190611a0d565b61084f565b6040516101c89796959493929190611afa565b60405180910390f35b6101eb60048036038101906101e69190611b9c565b610949565b6040516101f89190611be4565b60405180910390f35b61021b60048036038101906102169190611a0d565b6109f1565b005b61023760048036038101906102329190611a0d565b610b81565b60405161024a9796959493929190611bff565b60405180910390f35b61026d60048036038101906102689190611a0d565b610c88565b60405161027c93929190611c75565b60405180910390f35b61029f600480360381019061029a9190611cb3565b610d6a565b005b6102bb60048036038101906102b69190611b9c565b611027565b6040516102c89190611be4565b60405180910390f35b6102eb60048036038101906102e69190611a0d565b611101565b005b61030760048036038101906103029190611a0d565b611291565b005b610323600480360381019061031e9190611998565b611421565b005b61033f600480360381019061033a9190611b9c565b611582565b60405161034c9190611823565b60405180910390f35b61035d611656565b60405161036a9190611d6e565b60405180910390f35b61038d60048036038101906103889190611a0d565b61167a565b005b60015481565b61039e33610949565b6103dd576040517f08c379a00000000000000000000000000000000000000000000000000000000081526004016103d490611dd5565b60405180910390fd5b60056040518060e0016040528060025481526020013373ffffffffffffffffffffffffffffffffffffffff16815260200160001515815260200183815260200160008152602001600081526020014281525090806001815401808255809150506001900390600052602060002090600602016000909190919091506000820151816000015560208201518160010160006101000a81548173ffffffffffffffffffffffffffffffffffffffff021916908373ffffffffffffffffffffffffffffffffffffffff16021790555060408201518160010160146101000a81548160ff02191690831515021790555060608201518160020190816104de9190611ff7565b506080820151816003015560a0820151816004015560c0820151816005015550507f1c9d4d5acc39059348ae8d12af7ebbe15bed6f48123de8056708216d41b399c2600254336040516105329291906120c9565b60405180910390a16002600081548092919061054d90612121565b919050555050565b60035481565b60025481565b61056a33611027565b6105a9576040517f08c379a00000000000000000000000000000000000000000000000000000000081526004016105a0906121b5565b60405180910390fd5b60006105b433611582565b905061012c81106106945760008054906101000a900473ffffffffffffffffffffffffffffffffffffffff1673ffffffffffffffffffffffffffffffffffffffff16633c168eab33836040518363ffffffff1660e01b815260040161061a9291906121d5565b600060405180830381600087803b15801561063457600080fd5b505af1158015610648573d6000803e3d6000fd5b505050503373ffffffffffffffffffffffffffffffffffffffff167f5fa41db5e47ff1475562c0ce3ae7cfb8b3871c210095b651c6d203e662354a2a60405160405180910390a261084c565b60c881106107715760008054906101000a900473ffffffffffffffffffffffffffffffffffffffff1673ffffffffffffffffffffffffffffffffffffffff16633c168eab33836040518363ffffffff1660e01b81526004016106f79291906121d5565b600060405180830381600087803b15801561071157600080fd5b505af1158015610725573d6000803e3d6000fd5b505050503373ffffffffffffffffffffffffffffffffffffffff167f5fa41db5e47ff1475562c0ce3ae7cfb8b3871c210095b651c6d203e662354a2a60405160405180910390a261084b565b6064811061084a5760008054906101000a900473ffffffffffffffffffffffffffffffffffffffff1673ffffffffffffffffffffffffffffffffffffffff16633c168eab33836040518363ffffffff1660e01b81526004016107d49291906121d5565b600060405180830381600087803b1580156107ee57600080fd5b505af1158015610802573d6000803e3d6000fd5b505050503373ffffffffffffffffffffffffffffffffffffffff167f5fa41db5e47ff1475562c0ce3ae7cfb8b3871c210095b651c6d203e662354a2a60405160405180910390a25b5b5b50565b6006818154811061085f57600080fd5b90600052602060002090600702016000915090508060000154908060010154908060020160009054906101000a900473ffffffffffffffffffffffffffffffffffffffff16908060030180546108b490611e24565b80601f01602080910402602001604051908101604052809291908181526020018280546108e090611e24565b801561092d5780601f106109025761010080835404028352916020019161092d565b820191906000526020600020905b81548152906001019060200180831161091057829003601f168201915b5050505050908060040154908060050154908060060154905087565b60008060005b6001548110156109e7578373ffffffffffffffffffffffffffffffffffffffff1660048281548110610984576109836121fe565b5b906000526020600020906003020160010160009054906101000a900473ffffffffffffffffffffffffffffffffffffffff1673ffffffffffffffffffffffffffffffffffffffff16036109d657600191505b806109e090612121565b905061094f565b5080915050919050565b6002548110610a35576040517f08c379a0000000000000000000000000000000000000000000000000000000008152600401610a2c90612279565b60405180910390fd5b60058181548110610a4957610a486121fe565b5b90600052602060002090600602016004016000815480929190610a6b90612121565b919050555060005b600154811015610b44573373ffffffffffffffffffffffffffffffffffffffff1660048281548110610aa857610aa76121fe565b5b906000526020600020906003020160010160009054906101000a900473ffffffffffffffffffffffffffffffffffffffff1673ffffffffffffffffffffffffffffffffffffffff1603610b3357600260048281548110610b0b57610b0a6121fe565b5b90600052602060002090600302016000016000828254610b2b9190612299565b925050819055505b80610b3d90612121565b9050610a73565b507fbec2462b9c6ff23a9db2efeca613a8897449aafb8dfd82545493d90c5f618f178133604051610b769291906120c9565b60405180910390a150565b60058181548110610b9157600080fd5b90600052602060002090600602016000915090508060000154908060010160009054906101000a900473ffffffffffffffffffffffffffffffffffffffff16908060010160149054906101000a900460ff1690806002018054610bf390611e24565b80601f0160208091040260200160405190810160405280929190818152602001828054610c1f90611e24565b8015610c6c5780601f10610c4157610100808354040283529160200191610c6c565b820191906000526020600020905b815481529060010190602001808311610c4f57829003601f168201915b5050505050908060030154908060040154908060050154905087565b60048181548110610c9857600080fd5b90600052602060002090600302016000915090508060000154908060010160009054906101000a900473ffffffffffffffffffffffffffffffffffffffff1690806002018054610ce790611e24565b80601f0160208091040260200160405190810160405280929190818152602001828054610d1390611e24565b8015610d605780601f10610d3557610100808354040283529160200191610d60565b820191906000526020600020905b815481529060010190602001808311610d4357829003601f168201915b5050505050905083565b610d7333610949565b610db2576040517f08c379a0000000000000000000000000000000000000000000000000000000008152600401610da990611dd5565b60405180910390fd5b60066040518060e0016040528060035481526020018481526020013373ffffffffffffffffffffffffffffffffffffffff1681526020018381526020016000815260200160008152602001428152509080600181540180825580915050600190039060005260206000209060070201600090919091909150600082015181600001556020820151816001015560408201518160020160006101000a81548173ffffffffffffffffffffffffffffffffffffffff021916908373ffffffffffffffffffffffffffffffffffffffff1602179055506060820151816003019081610e9a9190611ff7565b506080820151816004015560a0820151816005015560c08201518160060155505060005b600154811015610fcd573373ffffffffffffffffffffffffffffffffffffffff1660048281548110610ef357610ef26121fe565b5b906000526020600020906003020160010160009054906101000a900473ffffffffffffffffffffffffffffffffffffffff1673ffffffffffffffffffffffffffffffffffffffff1603610f7e57600a60048281548110610f5657610f556121fe565b5b90600052602060002090600302016000016000828254610f7691906122cd565b925050819055505b600160058481548110610f9457610f936121fe565b5b906000526020600020906006020160010160146101000a81548160ff02191690831515021790555080610fc690612121565b9050610ebe565b507f8792ee5f07165cbd0d40e9ce0ec9b99b47dbaca1355ae1334f106c40299f5eaf826003543360405161100393929190612301565b60405180910390a16003600081548092919061101e90612121565b91905055505050565b60008060005b6001548110156110f7578373ffffffffffffffffffffffffffffffffffffffff1660048281548110611062576110616121fe565b5b906000526020600020906003020160010160009054906101000a900473ffffffffffffffffffffffffffffffffffffffff1673ffffffffffffffffffffffffffffffffffffffff161480156110dc57506064600482815481106110c8576110c76121fe565b5b906000526020600020906003020160000154115b156110e657600191505b806110f090612121565b905061102d565b5080915050919050565b6003548110611145576040517f08c379a000000000000000000000000000000000000000000000000000000000815260040161113c90612384565b60405180910390fd5b60068181548110611159576111586121fe565b5b9060005260206000209060070201600501600081548092919061117b90612121565b919050555060005b600154811015611254573373ffffffffffffffffffffffffffffffffffffffff16600482815481106111b8576111b76121fe565b5b906000526020600020906003020160010160009054906101000a900473ffffffffffffffffffffffffffffffffffffffff1673ffffffffffffffffffffffffffffffffffffffff16036112435760026004828154811061121b5761121a6121fe565b5b9060005260206000209060030201600001600082825461123b9190612299565b925050819055505b8061124d90612121565b9050611183565b507f894a29f09dc863cb837ca842621cefb8ce039dea7f153b223096906c2ca5e5c981336040516112869291906120c9565b60405180910390a150565b60035481106112d5576040517f08c379a00000000000000000000000000000000000000000000000000000000081526004016112cc90612384565b60405180910390fd5b600681815481106112e9576112e86121fe565b5b9060005260206000209060070201600401600081548092919061130b90612121565b919050555060005b6001548110156113e4573373ffffffffffffffffffffffffffffffffffffffff1660048281548110611348576113476121fe565b5b906000526020600020906003020160010160009054906101000a900473ffffffffffffffffffffffffffffffffffffffff1673ffffffffffffffffffffffffffffffffffffffff16036113d3576005600482815481106113ab576113aa6121fe565b5b906000526020600020906003020160000160008282546113cb91906122cd565b925050819055505b806113dd90612121565b9050611313565b507fd47f503243a1e83859e09b0e5cf023e0895de7bf00590e1e6eb347ad9666d59c81336040516114169291906120c9565b60405180910390a150565b61142a33610949565b1561146a576040517f08c379a0000000000000000000000000000000000000000000000000000000008152600401611461906123f0565b60405180910390fd5b60046040518060600160405280600081526020013373ffffffffffffffffffffffffffffffffffffffff1681526020018381525090806001815401808255809150506001900390600052602060002090600302016000909190919091506000820151816000015560208201518160010160006101000a81548173ffffffffffffffffffffffffffffffffffffffff021916908373ffffffffffffffffffffffffffffffffffffffff160217905550604082015181600201908161152d9190611ff7565b5050506001600081548092919061154390612121565b91905055507f3ad53045c2cbf33ce0fc9ef31510dc64aef0a93bf110235b3dff696198336aad336040516115779190612410565b60405180910390a150565b600080600090505b60015481101561164b578273ffffffffffffffffffffffffffffffffffffffff16600482815481106115bf576115be6121fe565b5b906000526020600020906003020160010160009054906101000a900473ffffffffffffffffffffffffffffffffffffffff1673ffffffffffffffffffffffffffffffffffffffff160361163a57600481815481106116205761161f6121fe565b5b906000526020600020906003020160000154915050611651565b8061164490612121565b905061158a565b50600090505b919050565b60008054906101000a900473ffffffffffffffffffffffffffffffffffffffff1681565b60025481106116be576040517f08c379a00000000000000000000000000000000000000000000000000000000081526004016116b590612279565b60405180910390fd5b600581815481106116d2576116d16121fe565b5b906000526020600020906006020160030160008154809291906116f490612121565b919050555060005b6001548110156117cd573373ffffffffffffffffffffffffffffffffffffffff1660048281548110611731576117306121fe565b5b906000526020600020906003020160010160009054906101000a900473ffffffffffffffffffffffffffffffffffffffff1673ffffffffffffffffffffffffffffffffffffffff16036117bc57600560048281548110611794576117936121fe565b5b906000526020600020906003020160000160008282546117b491906122cd565b925050819055505b806117c690612121565b90506116fc565b507fa588c575f4fbf35cf34067a1418519e092c69ef9459188f6d952712b7936417481336040516117ff9291906120c9565b60405180910390a150565b6000819050919050565b61181d8161180a565b82525050565b60006020820190506118386000830184611814565b92915050565b6000604051905090565b600080fd5b600080fd5b600080fd5b600080fd5b6000601f19601f8301169050919050565b7f4e487b7100000000000000000000000000000000000000000000000000000000600052604160045260246000fd5b6118a58261185c565b810181811067ffffffffffffffff821117156118c4576118c361186d565b5b80604052505050565b60006118d761183e565b90506118e3828261189c565b919050565b600067ffffffffffffffff8211156119035761190261186d565b5b61190c8261185c565b9050602081019050919050565b82818337600083830152505050565b600061193b611936846118e8565b6118cd565b90508281526020810184848401111561195757611956611857565b5b611962848285611919565b509392505050565b600082601f83011261197f5761197e611852565b5b813561198f848260208601611928565b91505092915050565b6000602082840312156119ae576119ad611848565b5b600082013567ffffffffffffffff8111156119cc576119cb61184d565b5b6119d88482850161196a565b91505092915050565b6119ea8161180a565b81146119f557600080fd5b50565b600081359050611a07816119e1565b92915050565b600060208284031215611a2357611a22611848565b5b6000611a31848285016119f8565b91505092915050565b600073ffffffffffffffffffffffffffffffffffffffff82169050919050565b6000611a6582611a3a565b9050919050565b611a7581611a5a565b82525050565b600081519050919050565b600082825260208201905092915050565b60005b83811015611ab5578082015181840152602081019050611a9a565b60008484015250505050565b6000611acc82611a7b565b611ad68185611a86565b9350611ae6818560208601611a97565b611aef8161185c565b840191505092915050565b600060e082019050611b0f600083018a611814565b611b1c6020830189611814565b611b296040830188611a6c565b8181036060830152611b3b8187611ac1565b9050611b4a6080830186611814565b611b5760a0830185611814565b611b6460c0830184611814565b98975050505050505050565b611b7981611a5a565b8114611b8457600080fd5b50565b600081359050611b9681611b70565b92915050565b600060208284031215611bb257611bb1611848565b5b6000611bc084828501611b87565b91505092915050565b60008115159050919050565b611bde81611bc9565b82525050565b6000602082019050611bf96000830184611bd5565b92915050565b600060e082019050611c14600083018a611814565b611c216020830189611a6c565b611c2e6040830188611bd5565b8181036060830152611c408187611ac1565b9050611c4f6080830186611814565b611c5c60a0830185611814565b611c6960c0830184611814565b98975050505050505050565b6000606082019050611c8a6000830186611814565b611c976020830185611a6c565b8181036040830152611ca98184611ac1565b9050949350505050565b60008060408385031215611cca57611cc9611848565b5b6000611cd8858286016119f8565b925050602083013567ffffffffffffffff811115611cf957611cf861184d565b5b611d058582860161196a565b9150509250929050565b6000819050919050565b6000611d34611d2f611d2a84611a3a565b611d0f565b611a3a565b9050919050565b6000611d4682611d19565b9050919050565b6000611d5882611d3b565b9050919050565b611d6881611d4d565b82525050565b6000602082019050611d836000830184611d5f565b92915050565b7f4e6f742072656769737465726564207573657200000000000000000000000000600082015250565b6000611dbf601383611a86565b9150611dca82611d89565b602082019050919050565b60006020820190508181036000830152611dee81611db2565b9050919050565b7f4e487b7100000000000000000000000000000000000000000000000000000000600052602260045260246000fd5b60006002820490506001821680611e3c57607f821691505b602082108103611e4f57611e4e611df5565b5b50919050565b60008190508160005260206000209050919050565b60006020601f8301049050919050565b600082821b905092915050565b600060088302611eb77fffffffffffffffffffffffffffffffffffffffffffffffffffffffffffffffff82611e7a565b611ec18683611e7a565b95508019841693508086168417925050509392505050565b6000611ef4611eef611eea8461180a565b611d0f565b61180a565b9050919050565b6000819050919050565b611f0e83611ed9565b611f22611f1a82611efb565b848454611e87565b825550505050565b600090565b611f37611f2a565b611f42818484611f05565b505050565b5b81811015611f6657611f5b600082611f2f565b600181019050611f48565b5050565b601f821115611fab57611f7c81611e55565b611f8584611e6a565b81016020851015611f94578190505b611fa8611fa085611e6a565b830182611f47565b50505b505050565b600082821c905092915050565b6000611fce60001984600802611fb0565b1980831691505092915050565b6000611fe78383611fbd565b9150826002028217905092915050565b61200082611a7b565b67ffffffffffffffff8111156120195761201861186d565b5b6120238254611e24565b61202e828285611f6a565b600060209050601f831160018114612061576000841561204f578287015190505b6120598582611fdb565b8655506120c1565b601f19841661206f86611e55565b60005b8281101561209757848901518255600182019150602085019450602081019050612072565b868310156120b457848901516120b0601f891682611fbd565b8355505b6001600288020188555050505b505050505050565b60006040820190506120de6000830185611814565b6120eb6020830184611a6c565b9392505050565b7f4e487b7100000000000000000000000000000000000000000000000000000000600052601160045260246000fd5b600061212c8261180a565b91507fffffffffffffffffffffffffffffffffffffffffffffffffffffffffffffffff820361215e5761215d6120f2565b5b600182019050919050565b7f4e6f742061206672657175656e7420636f6e7472696275746f72000000000000600082015250565b600061219f601a83611a86565b91506121aa82612169565b602082019050919050565b600060208201905081810360008301526121ce81612192565b9050919050565b60006040820190506121ea6000830185611a6c565b6121f76020830184611814565b9392505050565b7f4e487b7100000000000000000000000000000000000000000000000000000000600052603260045260246000fd5b7f496e76616c6964207175657374696f6e20494400000000000000000000000000600082015250565b6000612263601383611a86565b915061226e8261222d565b602082019050919050565b6000602082019050818103600083015261229281612256565b9050919050565b60006122a48261180a565b91506122af8361180a565b92508282039050818111156122c7576122c66120f2565b5b92915050565b60006122d88261180a565b91506122e38361180a565b92508282019050808211156122fb576122fa6120f2565b5b92915050565b60006060820190506123166000830186611814565b6123236020830185611814565b6123306040830184611a6c565b949350505050565b7f496e76616c696420616e73776572204944000000000000000000000000000000600082015250565b600061236e601183611a86565b915061237982612338565b602082019050919050565b6000602082019050818103600083015261239d81612361565b9050919050565b7f416c726561647920726567697374657265640000000000000000000000000000600082015250565b60006123da601283611a86565b91506123e5826123a4565b602082019050919050565b60006020820190508181036000830152612409816123cd565b9050919050565b60006020820190506124256000830184611a6c565b9291505056fea26469706673582212207ec0ef81c25690d9e15d91de667fa7ffd284e01e2547203c097b862c07ae9f9564736f6c63430008140033",
  "linkReferences": {},
  "deployedLinkReferences": {}
}